:020000020000FC
:1000000010C018951895189518952BC01895189527
:100010001895189518951895189518951895189578
:100020001895B89A04E00EBF0FE50DBF0FEF01BBA6
:100030000EE007BB08E302BB0E94660001E002BBC2
:100040000E9466000EE002BB0E946600A0E7BB278C
:1000500000E209BF08BF00E00FBD01E40EBD7894C7
:10006000FFCF26B537B52D933D930EB450E405264A
:100070000EBCA63789F410E019BFC0E7DD278880E1
:10008000C2E7DD279880C4E7DD27A88089189A1881
:100090009814C8F00E94560018950FE402BB0E9405
:1000A0006D000EE402BB0E946D0008950FE402BBD8
:1000B0000E946D0006E402BB0E946D0006E402BBD4
:1000C0000E946D0008950E944D00089502E008BB53
:1000D00000E008BB0E947400089546E048BB44E07D
:1000E00048BB0E94740008951FEF2FEF2A95F1F787
:0600F0001A95D9F70895EE
:00000001FF
