:020000020000FC
:1000000010C0189518951895189518951895189565
:100010001895189518951895189518951895189578
:100020001895000000000000000004E00EBF0FE57E
:100030000DBF0FEF01BB07E007BB08E302BB0E9447
:100040003C000E944A0001E002BB0E943C000E946A
:100050004A000EE002BB0E943C000E944A0000E8F9
:1000600002BB0E943C000E944A0001E402BB0E94C5
:1000700043000E944A00FFCF31E038BB30E038BB7C
:100080000E944A00089543E048BB42E048BB0E94FA
:060090004A0008950895E6
:00000001FF
