:020000020000FC
:1000000010C0189518951895189518951895189565
:100010001895189518951895189518951895189578
:10002000189504E00EBF0FE50DBF0FEF01BB07E011
:1000300007BB08E302BB0E94330001E002BB0E9441
:1000400033000EE002BB0E94330001E402BB0E94B9
:100050003A0002E402BB0E943A0003E402BB0E94A1
:100060003A00FFCFF2CF01E008BB00E008BB0E94DE
:100070004100089543E048BB42E048BB0E94410074
:1000800008951FEF2FEF2A95F1F71A95D9F70895E4
:00000001FF
